S0230000417474696E79313632342D44756D6D792D55736172742D446174612E737265639F
S11300000C943C000C9446000C9446000C9446005E
S11300100C9446000C9446000C9446000C94460044
S11300200C9446000C9446000C9446000C94460034
S11300300C9446000C9446000C9446000C94460024
S11300400C9446000C9446000C9446000C94460014
S11300500C9446000C9446000C9446000C94460004
S11300600C9446000C9446000C9446000C944600F4
S11300700C9446000C94460011241FBECFEFCDBF54
S1130080DFE3DEBF0E9460000C94AA000C94000021
S113009060E080E690E00E94A40060E081E690E0E9
S11300A00E94A4008091630080FDFCCF089510920B
S11300B0E205E0E2F4E084E0818388E0828B089545
S11300C00E9448000E9457000E94740088E591E84D
S11300D00E9486002FE78AE196E0215080409040FC
S11300E0E1F700C00000F2CFE0E0F8E080E491E046
S11300F08087918782E4868383E087830895909143
S1130100040895FFFCCF8093020808950F931F9372
S1130110CF93DF938C01C0E0D0E007C0F801EC0F6F
S1130120FD1F80810E947F002196F801019000202C
S1130130E9F73197E01BF10BCE17DF0778F3DF9176
S1130140CF911F910F910895DC0128ED2093340085
S10B01506C930895F894FFCFAD
S11301583C616161617C626262627C6363637C644A
S10C0168647C307C303E0D0A0079
S9030000FC
