:100000000C943C000C9459000C9459000C94590029
:100010000C9459000C9459000C9459000C945900FC
:100020000C9459000C9459000C9459000C945900EC
:100030000C9459000C9459000C9459000C945900DC
:100040000C9459000C9459000C9459000C945900CC
:100050000C9459000C9459000C9459000C945900BC
:100060000C9459000C9459000C9459000C945900AC
:100070000C9459000C94590011241FBECFEFCDBF32
:10008000DFE3DEBF18E3A0E0B8E3E9E6FBE002C08F
:1000900005900D92A830B107D9F728E3A8E0B8E39E
:1000A00001C01D92A031B207E1F70E94FA000C9442
:1000B00025050C94000060E080E690E00E94EE04CC
:1000C00060E081E690E00E94EE048091630080FD94
:1000D000FCCF08952F923F924F925F926F927F9242
:1000E0008F929F92AF92BF92CF92DF92EF92FF9248
:1000F0000F931F93CF93DF93CDB7DEB72B97CDBF71
:10010000DEBFC22EB32EA42E952E862E772E682EFD
:10011000592EF22E032F142F5A876983B72FD82E0A
:10012000E92EE0E0F0E014C031962F2D302F412F62
:100130005A8569817B2F8D2D9E2D08E00E94090232
:10014000F22E032F142F5A876983B72FD82EE92E4A
:100150002F2D302F412F5A8569817B2F8D2D9E2D7C
:10016000A0E00E94250201F78FEF8A87CB86B98233
:100170004A2C392C282C1AC08D01000F111F000F9A
:10018000111F000F111F2B853981442D532D622D16
:10019000772D862D952D0E9409028A848226912C26
:1001A000F401E25BF54780818A87FD01DF01119749
:1001B000EF2B11F78A852B96CDBFDEBFDF91CF9154
:1001C0001F910F91FF90EF90DF90CF90BF90AF9075
:1001D0009F908F907F906F905F904F903F902F9067
:1001E00008951092E205E0E2F4E084E0818388E083
:1001F000828B08950E945B000E94F1000E94A00182
:100200008091063890910738282F392F40E050E030
:1002100060E070E080E090E008E20E94EE01E22FF2
:10022000D32EF42EE52E162FD72FC82FF92F40915D
:10023000043850910538242F352F40E050E060E01D
:1002400070E080E090E008E10E94EE013D29F42A90
:100250000E2D052B162BD72BC82BF92B40910238CE
:100260005091033860E070E0032E3CE0440F551FCE
:10027000661F771F3A95D1F7302D2E2B352BF62A96
:10028000072B4091013880E1489FA0011124242BC5
:10029000852F832B90910038292B20930838809349
:1002A0000938F0920A3800930B3810930C38D09329
:1002B0000D38C0930E38F0930F38209108383091E4
:1002C000093840910A3850910B3860910C38709180
:1002D0000D3880910E3890910F380E946A001F925D
:1002E0008F93809100381F928F93809101381F92D5
:1002F0008F93809103388F93809102388F938091F0
:1003000005388F93809104388F93809107388F93AD
:10031000809106388F938EE49BE89F938F930E9481
:10032000D0019FE72AE186E0915020408040E1F72C
:1003300000C000008DB79EB70E968DBF9EBFBDCF8B
:10034000E0E0F8E080E491E08087918782E48683B2
:1003500083E0878308959091040895FFFCCF8093F4
:10036000020808950F931F93CF93DF938C01C0E091
:10037000D0E007C0F801EC0FFD1F80810E94AB01A7
:100380002196F80101900020E9F73197E01BF10B6D
:10039000CE17DF0778F3DF91CF911F910F9108956A
:1003A000CF93DF93CDB7DEB7A697CDBFDEBF9E015B
:1003B000255D3F4FF901419151919F0166E270E047
:1003C000CE0101960E943102CE0101960E94B20137
:1003D000A696CDBFDEBFDF91CF9108950F93083071
:1003E00090F0982F872F762F652F542F432F322F81
:1003F00022270850F4CF220F331F441F551F661FBA
:10040000771F881F991F0A95B2F70F91089597FBE0
:1004100010F8169400080F93083098F00850232F16
:10042000342F452F562F672F782F892F902DF4CFFB
:10043000059497958795779567955795479537953F
:1004400027950A95AAF70F9108950024A7FD009417
:100450002A17300540055005600570058005900598
:100460000895AEE0B0E0E7E3F2E00C9402058C0101
:10047000FA0186E08C8309831A8377FF02C060E06B
:1004800070E8CB0101978D839E83A901BF01CE0146
:1004900001960E945D024D815E8157FD0AC02F8149
:1004A0003885421753070CF49A01F801E20FF31F45
:1004B00010822E96E4E00C941B05ABE0B0E0E3E67E
:1004C000F2E00C94F4046C017B018A01FC011682B9
:1004D0001782838181FFCCC1CE0101963C01F601D8
:1004E0009381F70193FD859193FF81917F0188238B
:1004F00009F4BAC1853239F493FD859193FF819156
:100500007F01853229F4B60190E00E945404E7CFC0
:10051000912C212C312CFFE1F315D8F08B3279F09E
:1005200038F4803279F08332A1F4232D20611DC08C
:100530008D3261F0803369F4232D216016C0832D44
:100540008260382EE32DE4603E2E2AC0F32DF86041
:100550001DC037FC2DC020ED280F2A3040F08E3210
:10056000B9F436FC81C1232D2064322E19C036FE29
:1005700006C08AE0989E200D1124922E11C0EAE058
:100580002E9E200D1124222EF32DF0623F2E08C046
:100590008C3621F4832D8068382E02C0883641F4D1
:1005A000F70193FD859193FF81917F018111B3CF75
:1005B000982F9F7D9554933028F40C5F1F4F9FE335
:1005C00099830DC0833631F0833771F0833509F09C
:1005D00059C021C0F801808189830E5F1F4F882494
:1005E0008394912C530113C02801F2E04F0E511C4B
:1005F000F801A080B18036FE03C0692D70E002C012
:100600006FEF7FEFC5010E9449044C018201F32D79
:10061000FF773F2E16C0280122E0420E511CF80140
:10062000A080B18036FE03C0692D70E002C06FEF7C
:100630007FEFC5010E943E044C01F32DF0683F2E70
:10064000820133FC1BC0822D90E088169906B0F41D
:10065000B60180E290E00E9454042A94F4CFF501A0
:1006600037FC859137FE81915F01B60190E00E94D1
:10067000540421102A9421E0821A910881149104D3
:1006800071F7E8C0843611F0893641F5F80137FE7C
:1006900007C060817181828193810C5F1F4F08C008
:1006A00060817181072E000C880B990B0E5F1F4F24
:1006B000F32DFF763F2E97FF09C09095809570959A
:1006C00061957F4F8F4F9F4FF0683F2E2AE030E0BB
:1006D000A3010E949004882E861845C0853731F406
:1006E000232D2F7EB22E2AE030E025C0932D997F56
:1006F000B92E8F36C1F018F4883579F0B5C080373F
:1007000019F0883721F0B0C0E92FE061BE2EB4FEA9
:100710000DC0FB2DF460BF2E09C034FE0AC0292F86
:100720002660B22E06C028E030E005C020E130E0AF
:1007300002C020E132E0F801B7FE07C0608171819C
:10074000828193810C5F1F4F06C06081718180E0C0
:1007500090E00E5F1F4FA3010E949004882E861820
:10076000FB2DFF773F2E36FE0DC0232D2E7FA22EB0
:10077000891458F434FE0BC032FC09C0832D8E7EE0
:10078000A82E05C0B82CA32C03C0B82C01C0B92CCE
:10079000A4FE0FC0FE01E80DF11D8081803321F41D
:1007A0009A2D997EA92E09C0A2FE06C0B394B394D7
:1007B00004C08A2D867809F0B394A3FC11C0A0FE72
:1007C00006C0B21488F4280C922C9B180EC0B214E8
:1007D00060F4B60180E290E00E945404B394F7CF35
:1007E000B21418F42B1802C0982C212CA4FE10C0AF
:1007F000B60180E390E00E945404A2FE17C0A1FC61
:1008000003C088E790E002C088E590E0B6010CC024
:100810008A2D867859F0A1FE02C08BE201C080E2E9
:10082000A7FC8DE2B60190E00E945404891438F4CC
:10083000B60180E390E00E9454049A94F7CF8A9422
:10084000F301E80DF11D8081B60190E00E9454048F
:100850008110F5CF222009F442CEB60180E290E06B
:100860000E9454042A94F6CFF6018681978102C033
:100870008FEF9FEF2B96E2E10C940D05FC010590A4
:10088000615070400110D8F7809590958E0F9F1F92
:100890000895FC016150704001900110D8F78095D7
:1008A00090958E0F9F1F08950F931F93CF93DF9303
:1008B000FB01238121FD03C08FEF9FEF2CC022FF9E
:1008C00016C046815781248135814217530744F46D
:1008D000A081B1819D012F5F3F4F208331838C9395
:1008E000268137812F5F3F4F2683378314C08B01CA
:1008F000EC01FB010084F185E02D0995892BE1F6DF
:10090000D80116968D919C911797019616968D9306
:100910009C931797CE01DF91CF911F910F9108956E
:10092000FA01AA27283051F1203181F1E8946F9320
:100930006E7F6E5F7F4F8F4F9F4FAF4FB1E03ED0C6
:10094000B4E03CD0670F781F891F9A1FA11D680F64
:10095000791F8A1F911DA11D6A0F711D811D911D97
:10096000A11D20D009F468943F912AE0269F11240C
:100970003019305D3193DEF6CF010895462F477070
:10098000405D4193B3E00FD0C9F7F6CF462F4F70CB
:10099000405D4A3318F0495D31FD4052419302D029
:1009A000A9F7EACFB4E0A6959795879577956795CF
:1009B000BA95C9F700976105710508959B01AC01CF
:1009C0000A2E06945795479537952795BA95C9F7F6
:1009D000620F731F841F951FA01D0895DC0128ED71
:1009E000209334006C9308952F923F924F925F9220
:1009F0006F927F928F929F92AF92BF92CF92DF922F
:100A0000EF92FF920F931F93CF93DF93CDB7DEB793
:100A1000CA1BDB0BCDBFDEBF09942A883988488802
:100A20005F846E847D848C849B84AA84B984C8840A
:100A3000DF80EE80FD800C811B81AA81B981CE0F01
:0E0A4000D11DCDBFDEBFED010895F894FFCFAC
:100A4E00009BAD36C15A6CF71982B42FD84375EEA0
:100A5E0032A99F04F3685EC52BB0861DEA7147DC90
:100A6E0064FFC952A53E08937DE6D04BBC27118A80
:100A7E0056CDFB60970C3AA14FD4E2798E1523B870
:100A8E00C85365FE0992A43FD14A7CE7108BBD2660
:100A9E00FA6157CC3BA0960DE3784ED522B98F1450
:100AAE00AC37019A6DF6C05BB52E188374EFD94240
:100ABE009E0533A85FC4F269871C2AB146DDEB7030
:100ACE000B90A63DCA5167FC1289BF24D3487EE520
:100ADE0039A2940FF86355CE20BB8D16E17A4CD710
:100AEE006FF4C259AE35039876EDDB40B72C1A8100
:100AFE005DC6F06B9C0731AA44DFE972851E28B3F0
:100B0E00C3586EF50299AF34DA4177EC1B80B62DDF
:100B1E00F16A5CC730AB9D06E87345DE29B2841FCF
:100B2E00A73C0A9166FDCB50BE2513887FE4D249BF
:100B3E00950E38A354CFF9628C1721BA4DD6E07BAF
:100B4E003C253034782530347825303378253032D2
:0B0B5E00782578253032783E0D0A0023
:080B69000165D3099F8C5A00BD
:00000001FF
